:100000000C942A000C9447000C9447000C94470071
:100010000C9447000C9447000C9447000C94470044
:100020000C9447000C9449030C9447000C947803FB
:100030000C9447000C9447000C9447000C94470024
:100040000C9447000C9447000C9447000C94470014
:100050000C94470011241FBECFE5D4E0DEBFCDBF16
:1000600011E0A0E6B0E0EEEFF8E002C005900D92DE
:10007000AE38B107D9F721E0AEE8B1E001C01D927A
:10008000A23AB207E1F70E94A6030C947D040C94F7
:1000900000009598949A08955D9BFECF8CB90895C1
:1000A00085BB81E088BB8FE19EE40197F1F700C03A
:1000B000000018BA089581E00E94500086E00E9476
:1000C00050008CE00E94500088E30C945000DC014A
:1000D00035E024E0FC0101900020E9F73197E81BAE
:1000E000F90BAD01481B590B4E175F0758F44D91A2
:1000F00045BB38BBEFECF7E03197F1F700C00000EB
:1001000028BBE8CF089585BB85E088BB8FEC97E0DE
:100110000197F1F700C0000084E088BB08958230A9
:10012000910561F01CF4019739F008958330910531
:1001300039F0049739F0089580E805C080EC03C0D9
:1001400084E901C084ED0C945000CF93DF938BB30E
:100150008F608BBB20E030E0A0E4B0E0C8E0D0E0EE
:10016000922F8AB380788ABB8AB3AD01022E02C077
:10017000559547950A94E2F7482B4ABB40E050E07A
:10018000842F69B370E0FE01042E02C0F595E79557
:100190000A94E2F76E237F23672B29F4242F220F82
:1001A000820F890F0BC04F5F5F4F4430510541F7FD
:1001B0002F5F3F4F2330310599F68CE0DF91CF91CF
:1001C0000895CF93DF93C0E0D0E02FEF81EE94E06D
:1001D000215080409040E1F700C000000E94A5003F
:1001E000E82FF0E0E456FF4F80818A3289F08332B5
:1001F00079F08D3251F3282F082E000C330B205349
:1002000031092C0F3D1FC20FD31F0E948300DDCF89
:10021000CE01DF91CF910895009719F0019719F061
:1002200008950C9449009498959A0895CF93DF937C
:100230008091920190919301CAE0D0E0BE010E94AA
:100240000C04FB01E05AFF4F80810E9483008091E3
:10025000920190919301BE010E940C04FC01E05AAE
:10026000FF4F80810E9483008AE30E948300809177
:10027000940190919501BE010E940C04FB01E05A8B
:10028000FF4F80810E94830080919401909195019D
:10029000BE010E940C04FC01E05AFF4F80810E94C5
:1002A00083008AE30E9483008091960190919701D8
:1002B000BE010E940C04FB01E05AFF4F80810E94A6
:1002C00083008091960190919701BE010E940C04D9
:1002D000FC01E05AFF4F8081DF91CF910C948300A5
:1002E0000E945B0089EA90E00E94670088E991E043
:1002F0000E94670080EC0E94500083EB90E00E9417
:1003000067008EE790E00E9467008DE20E94830004
:1003100084E790E00E9467008DE20E9483008AE6F5
:1003200090E00E94670084E90E94500086EB90E014
:100330000E9467000E94160184ED0E9450008DEB20
:1003400090E00C9467009F92AF92BF92CF92DF92A1
:10035000EF92FF920F931F93CF93DF93CDB7DEB74A
:1003600064970FB6F894DEBF0FBECDBF88E0B82EFD
:100370007E012DE0E20EF11C6E0183E0C80ED11C5F
:100380001C861B86F7012B2D11922A95E9F71A82FC
:100390001982F6012B2D11922A95E9F70E945B0034
:1003A0008CEC90E00E94670080EC0E9450008E016F
:1003B000055F1F4F902EA12E8FEF91EEE4E081504C
:1003C0009040E040E1F700C000000E94A500E82F47
:1003D000F0E0E456FF4F80818A3251F0833241F0E1
:1003E0008D3251F3F80181938F010E948300E4CF95
:1003F00062E970E0892D9A2D0E943404892B09F05E
:100400005AC00E945B008BED90E00E94670080EC78
:100410000E9450008E010F5F1F4F902EA12EFFEF04
:1004200021EE84E0F15020408040E1F700C0000060
:100430000E94A500E82FF0E0E456FF4F80818A3249
:1004400059F0833249F08D3251F3F80181938F01D5
:100450008AE20E948300E3CF68E870E0892D9A2D3C
:100460000E943404892BA9F40E94490064960FB6B7
:10047000F894DEBF0FBECDBFDF91CF911F910F91DA
:10048000FF90EF90DF90CF90BF90AF909F900C9433
:10049000700181E090E00E940C010E945B0081EFFE
:1004A00090E00E946700FFEF29E688E1F1502040CC
:1004B0008040E1F711C081E090E00E940C010E94B1
:1004C0005B0084E091E00E9467009FEFE9E6F8E1BD
:1004D0009150E040F040E1F700C0000051CFFF92A2
:1004E0000F931F93CF93DF930E945B0087E191E00E
:1004F0000E946700C0E0D0E001E010E08AE0F82E42
:100500002FEF31EE84E0215030408040E1F700C011
:1005100000000E94A500E82FF0E0E456FF4F808124
:100520008A32E1F08332D1F08D3251F3282F082E38
:10053000000C330B20533109209FA001219F500D47
:10054000309F500D1124C40FD51F9801F29E8001D9
:10055000F39E100D11240E948300D2CFCE01DF91B3
:10056000CF911F910F91FF900C944C000E945B0063
:100570008CE291E00E94670080EC0E9450000E9493
:10058000E1004AE050E06EE770E00E943D0484E93B
:100590000E9450000E94E1004AE050E064E770E0F1
:1005A0000E943D0484ED0E9450000E94E1004AE058
:1005B00050E06AE670E00E943D040C9470010E94D5
:1005C0005B008FE391E00E94670080EC0E94500086
:1005D0000E94E100909393018093920184E90E942C
:1005E00050000E94E100909395018093940184ED66
:1005F0000E9450000E94E100909397018093960121
:100600000C9470010E945B0088E591E00E946700F5
:1006100080EC0E94500084E691E00E94670084E92B
:100620000E94500080E791E00E94670084ED0E94E4
:10063000500085E891E00E9467000E94A500E82F25
:10064000F0E0E456FF4F80818D32B9F3823359F0E8
:100650001CF4813331F00895833339F0843339F059
:1006600008950C94B6020C94DF020C946F020C9463
:10067000700183B7846083BF12BE89B7816089BF70
:1006800010928E0110928F011092900110929101A0
:1006900008951F920F920FB60F9211248F939F937C
:1006A000AF93BF9380918E0190918F01A0919001A3
:1006B000B09191010196A11DB11D80938E0190937F
:1006C0008F01A0939001B0939101BF91AF919F9141
:1006D0008F910F900FBE0F901F90189510BC83E361
:1006E00089B98AB188698AB980B5866880BD08955C
:1006F0001F920F920FB60F9211242F933F934F9397
:100700005F936F937F938F939F93AF93BF93EF9379
:10071000FF938CB14AE050E068E971E090E00E94FC
:100720003D040E947001FF91EF91BF91AF919F91A5
:100730008F917F916F915F914F913F912F910F908A
:100740000FBE0F901F9018950C943D048FEF84BB43
:1007500081BB87BB0E9439030E946E030E945B002D
:100760000E94A30178940E94A5008C3011F00E9491
:10077000020380918E0190918F01A0919001B09120
:1007800091018A379105A105B10568F382B78930D7
:1007900050F380919601909197018B33910574F0FD
:1007A0001092970110929601809194019091950179
:1007B0000196909395018093940105C001969093C2
:1007C0009701809396018091940190919501CB9728
:1007D0006CF0109295011092940180919201909189
:1007E00093010196909393018093920180919201DD
:1007F000909193010C9724F0109293011092920122
:100800000E94700112BE10928E0110928F01109200
:10081000900110929101A7CF97FB072E16F4009438
:1008200007D077FD09D00E94200407FC05D03EF4D4
:10083000909581959F4F0895709561957F4F08958C
:10084000AA1BBB1B51E107C0AA1FBB1FA617B707F6
:1008500010F0A61BB70B881F991F5A95A9F7809512
:100860009095BC01CD010895FB01DC018D910190B3
:1008700080190110D9F3990B08954532510520F4E0
:10088000423010F00C944804FB011082CB01089513
:10089000BB274A3031F4992322F4BDE2909581952B
:1008A0009F4F0C945404BB27FB015527AA27880FA0
:1008B000991FAA1FA41710F0A41B83955051B9F7D4
:1008C000A05DAA3308F0A95DA193009779F7B11153
:1008D000B1931192CB010C946D04DC01FC01672FE4
:1008E00071917723E1F7329704C07C916D93708307
:0E08F0006291AE17BF07C8F30895F894FFCFCA
:1008FE00303132333435363738393031000000007C
:10090E000000000030300000000000000000323116
:10091E000000000000000000313233000000000033
:10092E000000313233000000000000003132333459
:10093E0035363738392A30232D54656D702069735A
:10094E003A200032300054696D653A200041646DE2
:10095E00696E3A205072657373202A00456E746575
:10096E007220757365722049443A00456E74657243
:10097E0020796F75722070617373776F72643A208D
:10098E000050617373776F726420496E636F727279
:10099E0065637400557365726E616D6520496E6393
:1009AE006F7272656374005365747570207374652D
:1009BE0070706572206D6F746F7220005965617270
:1009CE002C204D6F6E74682C204461793A200048BB
:1009DE006F75722C204D696E757465732C2053657E
:1009EE00636F6E64733A2000312D2053657420447A
:1009FE0061746500322D205365742054696D650055
:100A0E00332D205365742053746570706572206D9C
:0E0A1E006F746F7200342D206261636B0000F4
:00000001FF
