:100000000C942A000C9434000C9434000C943400AA
:100010000C9434000C9434000C9434000C94340090
:100020000C9434000C9434000C9434000C94340080
:100030000C9434000C9434000C9434000C94340070
:100040000C9434000C9434000C9434000C94340060
:100050000C94340011241FBECFE5D4E0DEBFCDBF29
:100060000E9436000C945C000C9400008FEF87BB5C
:100070001ABA4FEF29E130E089B3813089F448BBE7
:1000800088E893E1F9013197F1F70197D9F718BAA8
:1000900088E893E1F9013197F1F70197D9F7ECCFAF
:1000A00089B3882349F788E893E1F9013197F1F79B
:0C00B0000197D9F748BBE0CFF894FFCFD0
:00000001FF
