:100000000C942A000C9447000C9447000C94470071
:100010000C9447000C9447000C9447000C94470044
:100020000C9467000C9478000C9447000C944700E3
:100030000C9447000C9447000C9447000C94470024
:100040000C9447000C9447000C9447000C94470014
:100050000C94470011241FBECFE5D4E0DEBFCDBF16
:1000600010E0A0E6B0E0E8E1F2E002C005900D92F9
:10007000AA36B107D9F710E0AAE6B0E001C01D9298
:10008000A137B107E1F70E9489000C940A010C9492
:10009000000010926C0010926D0010926E00109291
:1000A0006F0008958EB582608EBD1DBC1CBC89B7E3
:1000B000846089BF10926A00089583B7826083BF0D
:1000C00012BE89B7816089BF10926B0008951F929C
:1000D0000F920FB60F9211248F9380916A008F5F59
:1000E00080936A008F910F900FBE0F901F9018950C
:1000F0001F920F920FB60F9211248F9380916B0075
:100100008F5F80936B008F910F900FBE0F901F90A9
:1001100018958FEF84BB81BB81E082BB0E945200A7
:100120000E945D00789410926C0010926D00109205
:100130006E0010926F0021E030E080916A008F30F5
:10014000E0F18CB59DB580549244B8F180916C007B
:10015000893040F010926C0080916D008F5F809329
:100160006D0005C080916C008F5F80936C00809162
:100170006D00893038F010926D0080916E008F5FB5
:1001800080936E0080916E00893038F010926E007E
:1001900080916F008F5F80936F0080916F00893036
:1001A00040F010926C0010926D0010926E00109250
:1001B0006F001DBC1CBC10926A0080916B008E34D5
:1001C00008F4BBCF82B7803208F4B7CFE09170005B
:1001D000F0E0E459FF4FE081F0E0E05AFF4F80810A
:1001E00085BB80917000A90102C0440F551F8A95FC
:1001F000E2F742BB80917000833018F010927000DB
:1002000005C0809170008F5F8093700012BE1092C5
:080210006B0093CFF894FFCFBF
:0A021800C0F9A4B0999282F880901A
:00000001FF
