:100000000C942A000C943F000C943F000C943F0089
:100010000C943F000C943F000C943F000C943F0064
:100020000C943F000C943F000C943F000C943F0054
:100030000C943F000C943F000C943F000C943F0044
:100040000C943F000C943F000C943F000C943F0034
:100050000C943F0011241FBECFE5D4E0DEBFCDBF1E
:1000600011E0A0E6B0E0ECE2F1E002C005900D92F4
:10007000A832B107D9F70E948A000C9494000C941E
:10008000000085BB81E082BB80E29EE40197F1F72E
:1000900012BA089591E095BB92BB20E23EE4F901CB
:1000A0003197F1F712BA86E085BB92BBF90131971F
:1000B000F1F712BA8CE085BB92BBF9013197F1F7E9
:1000C00012BA88E385BB92BBC9010197F1F712BA56
:1000D00008951F93AC01DC010D900020E9F7119702
:1000E000A81BB90B20E030E015E060E27EE494E06C
:1000F0000CC0FA01E20FF31F808185BB12BBFB012C
:100100003197F1F792BB2F5F3F4F2A173B0788F3D8
:100110001F9108958FEF84BB81BB0E944A0080E647
:0C01200090E00E946900FFCFF894FFCF30
:10012C0048656C6C6F20576F726C64210000000086
:10013C0000000000000000000000000000000000B3
:10014C0000000000000000000000000000000000A3
:10015C000000000000000000000000000000000093
:10016C000000000000000000000000000000000083
:10017C000000000000000000000000000000000073
:10018C000000000000000000000000000000000063
:10019C000000000000000000000000000000000053
:1001AC000000000000000000000000000000000043
:1001BC000000000000000000000000000000000033
:1001CC000000000000000000000000000000000023
:1001DC000000000000000000000000000000000013
:0801EC0000000000000000000B
:00000001FF
