:100000000C942A000C9447000C9447000C94470071
:100010000C9453000C9447000C9447000C94470038
:100020000C9447000C9447000C9447000C94470034
:100030000C9447000C9447000C9447000C94470024
:100040000C9447000C9447000C9447000C94470014
:100050000C94470011241FBECFE5D4E0DEBFCDBF16
:1000600010E0A0E6B0E0EEE2F3E002C005900D92F1
:10007000AA36B107D9F710E0AAE6B0E001C01D9298
:10008000A137B107E1F70E941E010C9495010C9471
:10009000000085B5866085BD14BC89B7806489BFC2
:1000A00010926A0008951F920F920FB60F921124BA
:1000B0008F9380916A008F5F80936A008F910F9079
:1000C0000FBE0F901F90189585BB81E082BB80ED1D
:1000D00097E00197F1F712BA089585BB85E082BBDE
:1000E00080ED97E00197F1F784E082BB089591E0FD
:1000F00095BB92BB20ED37E0F9013197F1F712BAC9
:1001000086E085BB92BBF9013197F1F712BA8CE01A
:1001100085BB92BBF9013197F1F712BA88E385BB31
:1001200092BBC9010197F1F712BA0895CF92DF92FD
:10013000EF92FF920F931F93E0906F00F09070008A
:10014000C7016AE070E00E946E01FB0100E610E06A
:10015000E00FF11F808185BB95E0D92ED2BA20ED4A
:1001600037E0C9010197F1F744E042BBC7016AE0FB
:1001700070E00E946E01F801E80FF91F808185BBD5
:10018000D2BAC9010197F1F742BB8AE3C82EC5BABA
:10019000D2BAC9010197F1F742BBE0906D00F0902F
:1001A0006E00C7016AE070E00E946E01FB01E00F83
:1001B000F11F808185BBD2BAC9010197F1F742BB1B
:1001C000C7016AE070E00E946E01F801E80FF91FB4
:1001D000808185BBD2BAC9010197F1F742BBC5BA8C
:1001E000D2BAC9010197F1F742BBE0906B00F090E1
:1001F0006C00C7016AE070E00E946E01FB01E00F35
:10020000F11F808185BBD2BAC9010197F1F742BBCA
:10021000C7016AE070E00E946E01080F191FF80123
:10022000808185BBD2BAC9010197F1F742BB1F910A
:100230000F91FF90EF90DF90CF9008958FEF84BBE8
:1002400081BB0E9477000E9496000E94490078942A
:1002500080916A008A37E0F384B58231C8F38091D7
:100260006B0090916C008B33910574F010926C00D0
:1002700010926B0080916D0090916E0001969093AA
:100280006E0080936D0005C0019690936C00809382
:100290006B0080916D0090916E00CB976CF0109286
:1002A0006E0010926D0080916F0090917000019629
:1002B0009093700080936F0080916F009091700018
:1002C0000C9724F01092700010926F000E9477003B
:1002D0000E94960014BC10926A00BACF97FB092EB8
:1002E00007260AD077FD04D00CD006D000201AF4DF
:1002F000709561957F4F0895F6F7909581959F4F82
:100300000895AA1BBB1B51E107C0AA1FBB1FA6175C
:10031000B70710F0A61BB70B881F991F5A95A9F7AE
:0E03200080959095BC01CD010895F894FFCF13
:0A032E0030313233343536373839B8
:00000001FF
