:100000000C942A000C9447000C9447000C94470071
:100010000C9447000C9447000C9447000C94470044
:100020000C9447000C9473000C9447000C94A600A9
:100030000C9447000C9447000C9447000C94470024
:100040000C9447000C9447000C9447000C94470014
:100050000C94470011241FBECFE5D4E0DEBFCDBF16
:1000600010E0A0E6B0E0E6E5F2E002C005900D92F7
:10007000AA36B107D9F720E0AAE6B0E001C01D9288
:10008000A938B207E1F70E94C2000C9429010C9430
:10009000000080E886B9089527B1287F87709927E6
:1000A000822B87B9369A3699FECF84B195B10895DF
:1000B00085BB81E082BB8FE19EE40197F1F700C030
:1000C000000012BA089583B7846083BF12BE89B757
:1000D000816089BF10926D0010926E0010926F00C7
:1000E0001092700008951F920F920FB60F92112474
:1000F0008F939F93AF93BF9380916D0090916E000B
:10010000A0916F00B09170000196A11DB11D809368
:100110006D0090936E00A0936F00B0937000BF913C
:10012000AF919F918F910F900FBE0F901F901895D8
:1001300010BC83E389B98AB188698AB980B58668B9
:1001400080BD08955D9BFECF8CB908951F920F92DC
:100150000FB60F9211242F938F939F938CB124E0AD
:10016000829FC001112490936B0080936A0081E00C
:1001700080936C009F918F912F910F900FBE0F90E5
:100180001F9018958FEF81BB87BB1ABA0E94980009
:100190000E946300789480E886B980E090E00E9435
:1001A0004C0020917300309174008217930751F036
:1001B00080E090E00E944C00909374008093730064
:1001C0000E94A20080916D0090916E00A0916F003E
:1001D000B0917000CD97A105B105F8F280916C0047
:1001E0008823D9F282B78930C0F2E0917100F09192
:1001F0007200EE0FFF1FEE59FF4F808188BB809188
:10020000710090917200833091052CF01092720071
:100210001092710005C00196909372008093710056
:1002200012BE10926D0010926E0010926F0010922C
:10023000700080916A0090916B008130910519F4F3
:1002400010926C00AACF019790936B0080936A0084
:06025000A4CFF894FFCFDB
:0A025600190009000A000600050067
:00000001FF
