:100000000C942A000C9447000C9447000C94470071
:100010000C9447000C9447000C9447000C94470044
:100020000C9447000C9459000C9447000C94470022
:100030000C9447000C9447000C9447000C94470024
:100040000C9447000C9447000C9447000C94470014
:100050000C94470011241FBECFE5D4E0DEBFCDBF16
:1000600010E0A0E6B0E0E0E8F1E002C005900D92FB
:10007000A836B107D9F710E0A8E6B0E001C01D929C
:10008000AF36B107E1F70E947E000C94BE000C94DD
:10009000000083B7846083BF12BE89B7816089BFC7
:1000A00010926B0010926C0010926D0010926E0016
:1000B00008951F920F920FB60F9211248F939F9362
:1000C000AF93BF9380916B0090916C00A0916D00F5
:1000D000B0916E000196A11DB11D80936B009093AD
:1000E0006C00A0936D00B0936E00BF91AF919F9193
:1000F0008F910F900FBE0F901F9018958FEF8ABBB6
:1001000014BA0E944900789483B38430E9F3409193
:100110006A00209168003091690080916B00909195
:100120006C00A0916D00B0916E00CD97A105B10556
:10013000A0F382B7893088F3F901EE0FFF1FE05A70
:10014000FF4F80818BBB442341F01216130614F03D
:1001500040E00AC02150304007C02330310514F080
:1001600041E002C02F5F3F4F12BE10926B00109211
:100170006C0010926D0010926E00CFCFF894FFCFFC
:0801800009000A000600050059
:00000001FF
