:100000000C942A000C9447000C9447000C94470071
:100010000C9447000C9447000C9447000C94470044
:100020000C9447000C9491000C9447000C944700EA
:100030000C9447000C9447000C9447000C94470024
:100040000C9447000C9447000C9447000C94470014
:100050000C94470011241FBECFE5D4E0DEBFCDBF16
:1000600010E0A0E6B0E0E4E1F4E002C005900D92FB
:10007000A039B107D9F710E0A0E9B0E001C01D92A6
:10008000AD3AB107E1F70E9447010C9408020C94C5
:10009000000080E886B9089527B187709070287FA6
:1000A000282B27B9369A3699FECF24B135B1C9012C
:1000B000089585BB81E082BB80E29EE40197F1F761
:1000C00012BA089591E095BB92BB20E23EE4F9019B
:1000D0003197F1F712BA86E085BB92BBF9013197EF
:1000E000F1F712BA8CE085BB92BBF9013197F1F7B9
:1000F00012BA88E385BB92BBC9010197F1F712BA26
:10010000089583B7846083BF12BE89B7816089BFB9
:100110001092A8001092A9001092AA001092AB00B1
:1001200008951F920F920FB60F9211248F939F93F1
:10013000AF93BF938091A8009091A900A091AA00CD
:10014000B091AB000196A11DB11D8093A8009093C2
:10015000A900A093AA00B093AB00BF91AF919F916B
:100160008F910F900FBE0F901F901895CF93DF9334
:10017000EC010E946200DE010D900020E9F711976A
:10018000AC1BBD0B20E030E075E040ED57E064E0D3
:100190000CC0FE01E20FF31F808185BB72BBCA0158
:1001A0000197F1F762BB2F5F3F4F2A173B0788F398
:1001B000DF91CF910895EF92FF920F931F93DF93FA
:1001C000CF93CDB7DEB764970FB6F894DEBF0FBEFE
:1001D000CDBF80E690E00E94B6008E010F5F1F4FFA
:1001E00088ECE82EF12C36C089B38230C1F48091BE
:1001F0008D0090918E00019690938E0080938D00DB
:10020000B8014AE050E00E94C301C8010E94B60054
:1002100080E197E2F7013197F1F70197D9F789B3B8
:100220008430C1F480918D0090918E00019790935D
:100230008E0080938D00B8014AE050E00E94C30117
:10024000C8010E94B60080E197E2F7013197F1F70B
:100250000197D9F789B3883039F680E790E00E949A
:10026000B60080E197E228EC30E0F9013197F1F730
:100270000197D9F764960FB6F894DEBF0FBECDBFD5
:10028000CF91DF911F910F91FF90EF900895FF9212
:100290000F931F938FEF84BB81BB87BB1ABA0E9459
:1002A000DB000E94810078940E94620080E886B999
:1002B000FF24F3940091A4001091A50080E090E049
:1002C0000E944C000817190731F180E090E00E946D
:1002D0004C009093A5008093A40060E970E04AE090
:1002E00050E00E94C3018CE790E00E94B60080E9D4
:1002F00090E00E94B6002091A4003091A50080916A
:100300008D0090918E00281739071CF0F092AC00F8
:1003100002C01092AC008091A8009091A900A09119
:10032000AA00B091AB00CD97A105B10518F280915C
:10033000AC00882309F4BECF82B7893008F4BACF65
:100340002091A6003091A700F901EE0FFF1FEB5797
:10035000FF4F808188BB233031052CF01092A7001D
:100360001092A60006C02F5F3F4F3093A700209346
:10037000A60012BE1092A8001092A9001092AA0026
:100380001092AB0097CFFB019F01E8944230C4F07C
:100390004532B4F44A3029F497FB1EF490958195C8
:1003A0009F4F642F77270E94F401805D8A330CF001
:1003B000895D8193CB010097A1F716F45DE251931B
:1003C0001082C9010C94E401DC01FC01672F7191DA
:1003D0007723E1F7329704C07C916D93708362912B
:1003E000AE17BF07C8F30895AA1BBB1B51E107C096
:1003F000AA1FBB1FA617B70710F0A61BB70B881FB5
:10040000991F5A95A9F780959095BC01CD01089543
:04041000F894FFCF8E
:1004140044656661756C742074656D703D32350099
:100424005375626D697465642E2E2E0054656D706B
:10043400206973200009000A000600050019000065
:00000001FF
