:100000000C942A000C9434000C9434000C943400AA
:100010000C9434000C9434000C9434000C94340090
:100020000C9434000C9434000C9434000C94340080
:100030000C9434000C9434000C9434000C94340070
:100040000C9434000C9434000C9434000C94340060
:100050000C94340011241FBECFE5D4E0DEBFCDBF29
:100060000E9436000C945A000C9400008FEF87BB5E
:100070001ABA61E070E049E150E089B38823E9F7FA
:1000800020E030E089B38130C1F3CB01022E02C001
:10009000880F991F0A94E2F788BB88E893E1FA0178
:1000A0003197F1F70197D9F72F5F3F4F283031058E
:0800B00021F3E8CFF894FFCF23
:00000001FF
