:100000000C942A000C9447000C9447000C94470071
:100010000C9447000C9447000C9447000C94470044
:100020000C947E000C9447000C9447000C944700FD
:100030000C9447000C9447000C9447000C94470024
:100040000C9447000C9447000C9447000C94470014
:100050000C94470011241FBECFE5D4E0DEBFCDBF16
:1000600010E0A0E6B0E0E6EAF1E002C005900D92F3
:10007000AA36B107D9F710E0AAE6B0E001C01D9298
:10008000AC36B107E1F70E948F000C94D1000C94BC
:100090000000DF93CF93CDB7DEB72A970FB6F89461
:1000A000DEBF0FBECDBFFC019E012F5F3F4F40E67C
:1000B00050E08AE0DA010D90AD01D9010D929D0169
:1000C0008150C1F7EC0FFD1F2181332727FD3095AB
:1000D000C9012A960FB6F894DEBF0FBECDBFCF91EF
:1000E000DF9108958EB582608EBD1DBC1CBC89B7A2
:1000F000846089BF789410926A0008951F920F92CD
:100100000FB60F9211248F9380916A008F5F8093B6
:100110006A008F910F900FBE0F901F901895DF937C
:10012000CF93CDB7DEB72A970FB6F894DEBF0FBED8
:10013000CDBF8FEF84BB81BB80E882BB80EC85BBE9
:100140000E9472009E012F5F3F4F80916A008F30A6
:10015000E0F38CB59DB580549244B8F380916B0068
:10016000893018F010926B0005C080916B008F5F92
:1001700080936B0090916B00D901E0E6F0E08AE09B
:1001800001900D928150E1F7F901E90FF11D808195
:10019000992787FD909585BB1DBC1CBC10926A00F9
:0601A000D4CFF894FFCF5C
:0A01A600C0F9A4B0999282F880908D
:00000001FF
