:100000000C942A000C9447000C9447000C94470071
:100010000C9447000C9447000C9447000C94470044
:100020000C9447000C94E6010C9447000C94470094
:100030000C9447000C9447000C9447000C94470024
:100040000C9447000C9447000C9447000C94470014
:100050000C94470011241FBECFE5D4E0DEBFCDBF16
:1000600011E0A0E6B0E0E4EEF4E002C005900D92ED
:10007000A430B107D9F721E0A4E0B1E001C01D929E
:10008000A231B207E1F70E940B020C9470020C94AB
:1000900000009598949A089585BB81E088BB8FE114
:1000A0009EE40197F1F700C0000018BA089581E0BE
:1000B0000E944C0086E00E944C008CE00E944C00A4
:1000C00088E30C944C00DC0135E024E0FC01019055
:1000D0000020E9F73197E81BF90BAD01481B590BDC
:1000E0004E175F0758F44D9145BB38BBEFECF7E076
:1000F0003197F1F700C0000028BBE8CF089585BB19
:1001000085E088BB8FEC97E00197F1F700C0000015
:1001100084E088BB08958230910561F01CF401975A
:1001200039F008958330910539F0049739F0089536
:1001300080E805C080EC03C084E901C084ED0C9424
:100140004C000F931F93CF93DF932FEF84E39CE03A
:10015000215080409040E1F700C00000C0E4D0E0B2
:1001600008E010E08BB38F608BBB20E030E0E22F23
:100170008AB380788ABB4AB3CE01022E02C095951D
:1001800087950A94E2F7842B8ABB40E050E0942FD5
:1001900069B370E0D801042E02C0B595A7950A9402
:1001A000E2F76A237B23672B51F4842F880F980F83
:1001B000892F8E0FDF91CF911F910F9108954F5F7F
:1001C0005F4F4430510519F72F5F3F4F2330310502
:1001D00071F6C8CF009719F0019719F008950C94A3
:1001E00049009498959A08950E94570080E890E0FD
:1001F0000E94630088E091E00E94630080EC0E940E
:100200004C008AE890E00E94630084E90E944C0060
:100210008BE990E00E94630084ED0E944C008AEA22
:1002200090E00C9463009F92AF92BF92CF92DF92C6
:10023000EF92FF920F931F93CF93DF93CDB7DEB76B
:1002400064970FB6F894DEBF0FBECDBF88E0B82E1E
:100250007E012DE0E20EF11C6E0183E0C80ED11C80
:100260001C861B86F7012B2D11922A95E9F71A821D
:100270001982F6012B2D11922A95E9F70E94570059
:1002800089EB90E00E94630080EC0E944C008E019C
:10029000055F1F4F902EA12E0E94A100E82FF0E0D5
:1002A000EC58FF4F80818A3241F0833231F0F801FF
:1002B00081938F010E947F00EFCF6AE670E0892D65
:1002C0009A2D0E943202892B09F04EC00E945700DD
:1002D00088EC90E00E94630080EC0E944C008E014C
:1002E0000F5F1F4F902EA12E0E94A100E82FF0E07B
:1002F000EC58FF4F80818A3241F0833231F0F801AF
:1003000081938F010E947F00EFCF60E670E0892D1E
:100310009A2D0E943202892BA9F40E94490064960A
:100320000FB6F894DEBF0FBECDBFDF91CF911F9106
:100330000F91FF90EF90DF90CF90BF90AF909F9084
:100340000C94F40081E090E00E94EA000E945700C3
:100350008EED90E00E946300FFEF29E688E1F15006
:1003600020408040E1F711C081E090E00E94EA0067
:100370000E94570081EF90E00E9463009FEFE9E642
:10038000F8E19150E040F040E1F700C0000068CF94
:1003900010BC83E389B98AB188618AB980B586685F
:1003A00080BD08958BB18CB190E0089583B78460CF
:1003B00083BF12BE89B7816089BF10920401109279
:1003C0000501109206011092070108951F920F92E5
:1003D0000FB60F9211248F939F93AF93BF93809189
:1003E000040190910501A0910601B09107010196C9
:1003F000A11DB11D8093040190930501A0930601F6
:10040000B0930701BF91AF919F918F910F900FBE55
:100410000F901F9018958FEF84BB81BB87BB0E9404
:10042000D60178940E94C8010E9457000E941301CF
:100430008091040190910501A0910601B0910701FE
:10044000CD97A105B105A0F382B7893088F38BB1B0
:100450008CB14AE068E071E090E00E943B020E94AB
:10046000F400E6CFFB01DC018D91019080190110B1
:10047000D9F3990B0895BB274A3031F4992322F41C
:10048000BDE2909581959F4F0C944702BB27FB01DD
:100490005527AA27880F991FAA1FA41710F0A41B7D
:1004A00083955051B9F7A05DAA3308F0A95DA193D7
:1004B000009779F7B111B1931192CB010C946002BE
:1004C000DC01FC01672F71917723E1F7329704C0BB
:1004D0007C916D9370836291AE17BF07C8F3089546
:0404E000F894FFCFBE
:1004E40031323300000000000000313233000000DC
:1004F400000000003132333435363738392A30239E
:1005040054656D702069733A2000446174653A2023
:10051400323032312D30392D31300054696D653A25
:100524002031333A34303A30310041646D696E3AE7
:10053400205072657373202A00456E7465722075AD
:100544007365722049443A00456E74657220796F70
:1005540075722070617373776F72643A2000506112
:100564007373776F726420496E636F72726563741C
:1005740000557365726E616D6520496E636F7272AA
:040584006563740037
:00000001FF
