:100000000C942A000C943F000C943F000C943F0089
:100010000C943F000C943F000C943F000C943F0064
:100020000C943F000C943F000C943F000C943F0054
:100030000C943F000C943F000C943F000C943F0044
:100040000C943F000C943F000C943F000C943F0034
:100050000C943F0011241FBECFE5D4E0DEBFCDBF1E
:1000600011E0A0E6B0E0E8E1F4E002C005900D92F6
:10007000A430B107D9F70E94F8010C940A020C943D
:10008000000085BB81E082BB80E29EE40197F1F72E
:1000900012BA089591E095BB92BB20E23EE4F901CB
:1000A0003197F1F712BA86E085BB92BBF90131971F
:1000B000F1F712BA8CE085BB92BBF9013197F1F7E9
:1000C00012BA88E385BB92BBC9010197F1F712BA56
:1000D000089585BB85E082BB80ED97E00197F1F73D
:1000E00084E082BB08958230910571F083309105E0
:1000F0001CF40197F1F406C08330910539F00497A0
:10010000C1F40EC080E803C080EC01C084E985BB67
:1001100081E082BB80E29EE40197F1F712BA089574
:1001200084ED85BB81E082BB80E29EE40197F1F71C
:1001300012BA0895CF93DF9388E893E128EC30E07A
:10014000F9013197F1F70197D9F7C0E4D0E0A8E0C1
:10015000B0E08BB38F608BBB60E070E0E62F8AB3BA
:1001600080788ABB2AB3CE01062E02C0959587956A
:100170000A94E2F7282B2ABB40E050E089B39D01A6
:10018000042E02C0359527950A94E2F790E02823C3
:100190003923232B49F4CA01880F991F840F951F17
:1001A0008E0FDF91CF9108954F5F5F4F443051051F
:1001B00029F76F5F7F4F6330710581F6CACF0097D3
:1001C00019F0019731F403C0C598C49A0895C498F2
:1001D000C59A08951F93AC01DC010D900020E9F74A
:1001E0001197A81BB90B20E030E015E060ED77E037
:1001F00094E00CC0FA01E20FF31F808185BB12BBB3
:10020000FB013197F1F792BB2F5F3F4F2A173B0756
:1002100088F31F9108950E944A0080E690E00E94B2
:10022000EA0080EF90E00E94EA0082E090E00E9405
:1002300073008AE690E00E94EA0083E090E00E946A
:1002400073008BE790E00E94EA0084E090E00E9457
:1002500073008AE890E00E94EA000895CF92DF924E
:10026000EF92FF920F931F93DF93CF93CDB7DEB73B
:1002700064970FB6F894DEBF0FBECDBF19821A8205
:100280001B821C8286E0FE013596DF01982F1D92AD
:100290009A95E9F71B861C861D861E86FE013F96F1
:1002A000DF011D928A95E9F70E944A0089E990E0F2
:1002B0000E94EA0082E090E00E9473008E010F5FCE
:1002C0001F4FE5E0CE2E70EDE72E77E0F72E64E0CD
:1002D000D62E0E949A00E82FF0E0EC51FF4FE0810B
:1002E000EA3261F0E33251F0D801ED938D01E5BBC4
:1002F000C2BAC7010197F1F7D2BAEBCFCE0101968E
:1003000060EF70E00E940102009709F04DC00E946A
:100310004A0088EA90E00E94EA0082E090E00E94B1
:1003200073008E01055F1F4F55E0C52E40EDE42E92
:1003300047E0F42E34E0D32E0E949A00E82FF0E03C
:10034000EC51FF4FE081EA3261F0E33251F0D80125
:10035000ED938D01E5BBC2BAC7010197F1F7D2BA9F
:10036000EBCFCE010B966AEF70E00E94010200977E
:1003700039F480E090E00E94DF000E940B0129C068
:1003800081E090E00E94DF000E944A008EEB90E046
:100390000E94EA0080E197E228EC30E0F901319711
:1003A000F1F70197D9F713C081E090E00E94DF00D8
:1003B0000E944A0081ED90E00E94EA0080E197E20D
:1003C00028EC30E0F9013197F1F70197D9F70E9455
:1003D0002E0164960FB6F894DEBF0FBECDBFCF914D
:1003E000DF911F910F91FF90EF90DF90CF900895D4
:1003F0008FEF84BB81BB87BB0E944A000E942E0105
:10040000FFCFFB01DC018D91019080190110D9F320
:08041000990B0895F894FFCF49
:10041800557365722049443A2000446174653A2056
:10042800323032312D30392D31300054696D653A12
:100438002031333A34303A30310041646D696E3AD4
:10044800205072657373202A00456E74657220759A
:100458007365722049443A00456E74657220796F5D
:1004680075722070617373776F72643A20005061FF
:100478007373776F726420496E636F727265637409
:1004880000557365726E616D6520496E636F727297
:10049800656374003132333435363738392A3023BE
:1004A8003132330000000000000031323300000018
:0404B8000000000040
:00000001FF
