:100000000C942A000C9447000C9447000C94470071
:100010000C9447000C9447000C9447000C94470044
:100020000C9447000C9459000C9447000C94470022
:100030000C9447000C9447000C9447000C94470024
:100040000C9447000C9447000C9447000C94470014
:100050000C94470011241FBECFE5D4E0DEBFCDBF16
:1000600010E0A0E6B0E0EAE9F1E002C005900D92F0
:10007000A836B107D9F710E0A8E6B0E001C01D929C
:10008000AF36B107E1F70E947E000C94CB000C94D0
:10009000000083B7846083BF12BE89B7816089BFC7
:1000A00010926B0010926C0010926D0010926E0016
:1000B00008951F920F920FB60F9211248F939F9362
:1000C000AF93BF9380916B0090916C00A0916D00F5
:1000D000B0916E000196A11DB11D80936B009093AD
:1000E0006C00A0936D00B0936E00BF91AF919F9193
:1000F0008F910F900FBE0F901F9018958FEF8ABBB6
:1001000014BA0E944900789440916A0020916800D6
:100110003091690051E068EC70E083B3843041F0C5
:10012000452780E197E2FB013197F1F70197D9F775
:1001300080916B0090916C00A0916D00B0916E0069
:10014000CD97A105B10548F382B7893030F3F901A5
:10015000EE0FFF1FE05AFF4F80818BBB442349F015
:10016000121613061CF023E030E00BC02150304083
:1001700008C0233031051CF020E030E002C02F5FC2
:100180003F4F12BE10926B0010926C0010926D00E7
:0A01900010926E00C2CFF894FFCF6A
:08019A0009000A00060005003F
:00000001FF
