:100000000C942A000C9447000C9447000C94470071
:100010000C9453000C9447000C9447000C94470038
:100020000C9447000C9447000C9447000C94470034
:100030000C9447000C9447000C9447000C94470024
:100040000C9447000C9447000C9447000C94470014
:100050000C94470011241FBECFE5D4E0DEBFCDBF16
:1000600010E0A0E6B0E0E6E5F5E002C005900D92F4
:10007000A437B107D9F710E0A4E7B0E001C01D92A2
:10008000AB37B107E1F70E9416020C94A9020C9459
:10009000000085B5866085BD14BC89B7806489BFC2
:1000A0001092740008951F920F920FB60F921124B0
:1000B0008F93809174008F5F809374008F910F9065
:1000C0000FBE0F901F90189585BB81E082BB80ED1D
:1000D00097E00197F1F712BA089585BB85E082BBDE
:1000E00080ED97E00197F1F784E082BB089591E0FD
:1000F00095BB92BB20ED37E0F9013197F1F712BAC9
:1001000086E085BB92BBF9013197F1F712BA8CE01A
:1001100085BB92BBF9013197F1F712BA88E385BB31
:1001200092BBC9010197F1F712BA0895CF92DF92FD
:10013000EF92FF920F931F930E947700E090790057
:10014000F0907A00C7016AE070E00E948202FB0131
:1001500009E610E0E00FF11F808185BB95E0D92E04
:10016000D2BA20ED37E0C9010197F1F744E042BB74
:10017000C7016AE070E00E948202F801E80FF91FEF
:10018000808185BBD2BAC9010197F1F742BB8AE3EE
:10019000C82EC5BAD2BAC9010197F1F742BBE090A7
:1001A0007700F0907800C7016AE070E00E94820258
:1001B000FB01E00FF11F808185BBD2BAC901019715
:1001C000F1F742BBC7016AE070E00E948202F801C9
:1001D000E80FF91F808185BBD2BAC9010197F1F7F9
:1001E00042BBC5BAD2BAC9010197F1F742BBE09050
:1001F0007500F0907600C7016AE070E00E9482020C
:10020000FB01E00FF11F808185BBD2BAC9010197C4
:10021000F1F742BBC7016AE070E00E948202080F5A
:10022000191FF801808185BBD2BAC9010197F1F786
:1002300042BB1F910F91FF90EF90DF90CF900895F8
:10024000CF93DF93C8ECD0E030C089B38130A9F4FC
:100250008091790090917A008831910574F401962B
:1002600090937A00809379000E94960088E893E149
:10027000FE013197F1F70197D9F789B38230A9F4DC
:100280008091790090917A001816190674F40197FC
:1002900090937A00809379000E94960088E893E119
:1002A000FE013197F1F70197D9F789B3843069F6E8
:1002B00080E197E228EC30E0F9013197F1F70197FE
:1002C000D9F731C089B38130A9F48091770090913A
:1002D00078008B33910574F40196909378008093A5
:1002E00077000E94960088E893E1FE013197F1F7CC
:1002F0000197D9F789B38230C1F48091770090914A
:100300007800181619068CF4019790937800809362
:1003100077000E94960088E893E1FE013197F1F79B
:100320000197D9F702C0C8ECD0E089B3843051F608
:1003300080E197E228EC30E0F9013197F1F701977D
:10034000D9F731C089B38130A9F4809175009091BB
:1003500076008B33910574F4019690937600809328
:1003600075000E94960088E893E1FE013197F1F74D
:100370000197D9F789B38230C1F4809175009091CB
:100380007600181619068CF40197909376008093E6
:1003900075000E94960088E893E1FE013197F1F71D
:1003A0000197D9F702C0C8ECD0E089B3843051F688
:1003B000DF91CF910895DF93CF93CDB7DEB7299723
:1003C0000FB6F894DEBF0FBECDBF0E947700DE01EE
:1003D0001196E0E6F0E089E001900D928150E1F79E
:1003E000FE013196AE01465F5F4F75E020ED37E0CC
:1003F00064E007C0819185BB72BBC9010197F1F729
:1004000062BBE417F507B1F780E197E228EC30E032
:10041000F9013197F1F70197D9F729960FB6F894BA
:10042000DEBF0FBECDBFCF91DF910895CF93DF9395
:100430008FEF84BB81BB1ABA0E9477000E9496009E
:100440000E94490078940E942001CBE3D0E0809183
:1004500074008A37E0F384B58231C8F320917500C7
:1004600030917600809177009091780037FF0DC031
:100470001816190654F4D0937600C09375000197AE
:10048000909378008093770006C0215030403093DD
:10049000760020937500809177009091780097FF07
:1004A00010C08091790090917A00181619064CF4CA
:1004B000D0937800C0937700019790937A0080934F
:1004C00079008091790090917A0018161906A4F0AD
:1004D0008091770090917800181619066CF0809141
:1004E0007500909176001816190634F00E94DB0111
:1004F0000E9496000E9420010E94960014BC109257
:100500007400A5CF97FB092E07260AD077FD04D0EB
:100510000CD006D000201AF4709561957F4F089595
:10052000F6F7909581959F4F0895AA1BBB1B51E14B
:1005300007C0AA1FBB1FA617B70710F0A61BB70B53
:10054000881F991F5A95A9F780959095BC01CD01F8
:060550000895F894FFCFAE
:1005560066696E69736865640030313233343536E6
:0405660037383900E9
:00000001FF
