:100000000C942A000C9447000C9447000C94470071
:100010000C9447000C9447000C9447000C94470044
:100020000C9447000C9468000C9447000C949B00BF
:100030000C9447000C9447000C9447000C94470024
:100040000C9447000C9447000C9447000C94470014
:100050000C94470011241FBECFE5D4E0DEBFCDBF16
:1000600010E0A0E6B0E0E0E4F2E002C005900D92FE
:10007000A836B107D9F720E0A8E6B0E001C01D928C
:10008000A337B207E1F70E94B7000C941E010C944D
:10009000000080E886B9089527B1287F87709927E6
:1000A000822B87B9369A3699FECF84B195B10895DF
:1000B00083B7846083BF12BE89B7816089BF109205
:1000C0006B0010926C0010926D0010926E000895FB
:1000D0001F920F920FB60F9211248F939F93AF939D
:1000E000BF9380916B0090916C00A0916D00B091D6
:1000F0006E000196A11DB11D80936B0090936C0062
:10010000A0936D00B0936E00BF91AF919F918F91BE
:100110000F900FBE0F901F90189510BC83E389B904
:100120008AB188698AB980B5866880BD08955D9B6B
:10013000FECF8CB908951F920F920FB60F92112423
:100140002F938F939F938CB124E0829FC001112441
:10015000909369008093680081E080936A009F918A
:100160008F912F910F900FBE0F901F9018958FEFCA
:1001700081BB87BB1ABA0E948D000E9458007894F8
:1001800080E886B980E090E00E944C0020917100E8
:10019000309172008217930751F080E090E00E9446
:1001A0004C0090937200809371000E9497008091A0
:1001B0006B0090916C00A0916D00B0916E00CD9796
:1001C000A105B105F8F280916A008823D9F282B7BF
:1001D0008930C0F2E0916F00F0917000EE0FFF1FC8
:1001E000E05AFF4F808188BB80916F009091700032
:1001F000833091052CF01092700010926F0005C0B2
:1002000001969093700080936F0012BE10926B0065
:1002100010926C0010926D0010926E008091680038
:10022000909169008130910519F410926A00AACF6B
:1002300001979093690080936800A4CFF894FFCF52
:0802400009000A000600050098
:00000001FF
