:100000000C942A000C943C000C943C000C943C0092
:100010000C943C000C943C000C943C000C943C0070
:100020000C943C000C943C000C943C000C943C0060
:100030000C943C000C943C000C943C000C943C0050
:100040000C943C000C943C000C943C000C943C0040
:100050000C943C0011241FBECFE5D4E0DEBFCDBF21
:1000600011E0A0E6B0E001C01D92A832B107E1F7AF
:100070000E94BD000C94E6000C94000085BB81E05A
:1000800082BB80E29EE40197F1F712BA089591E0F5
:1000900095BB92BB20E23EE4F9013197F1F712BA29
:1000A00086E085BB92BBF9013197F1F712BA8CE07B
:1000B00085BB92BBF9013197F1F712BA88E385BB92
:1000C00092BBC9010197F1F712BA0895DF92EF923E
:1000D000FF920F931F93AC01DC010D900020E9F714
:1000E0001197A81BB90B20E030E060ECD62E11E090
:1000F00060E27EE490E8E92E85E0F82E04E024C07A
:10010000C9018F719070892B41F415BB12BBCB01D3
:100110000197F1F712BAE5BA06C0C9018F70907065
:10012000892B31F4D5BA12BBCB010197F1F712BA82
:10013000FA01E20FF31F808185BBF2BACB01019770
:10014000F1F702BB2F5F3F4F2A173B07C8F281E050
:1001500085BB82BB20E23EE4F9013197F1F712BA88
:1001600090E895BB82BBC9010197F1F712BA1F91C4
:100170000F91FF90EF90DF9008958FEF84BB81BBCC
:100180001ABA0E94470089B38823E9F320E030E0DF
:10019000A0E6B0E040E157E20AC089B3F901E05AB5
:1001A000FF4F8083CA010197F1F72F5F3F4FFD0199
:1001B00001900020E9F73197E056F040E217F3078D
:1001C00060F780E690E00E946600FBCFF894FFCFD6
:00000001FF
