:100000000C942A000C9447000C9447000C94470071
:100010000C9447000C9447000C9447000C94470044
:100020000C9447000C9447000C9447000C94470034
:100030000C9447000C9447000C9447000C94470024
:100040000C9447000C9447000C9447000C94470014
:100050000C94470011241FBECFE5D4E0DEBFCDBF16
:1000600010E0A0E6B0E0ECE2F2E002C005900D92F4
:10007000AA36B107D9F710E0AAE6B0E001C01D9298
:10008000A038B107E1F70E94A2000C9414010C946F
:10009000000080E886B9089527B187709070287FA6
:1000A000282B27B9369A3699FECF24B135B1C9012C
:1000B000089585BB81E082BB80E29EE40197F1F761
:1000C00012BA089591E095BB92BB20E23EE4F9019B
:1000D0003197F1F712BA86E085BB92BBF9013197EF
:1000E000F1F712BA8CE085BB92BBF9013197F1F7B9
:1000F00012BA88E385BB92BBC9010197F1F712BA26
:1001000008951F93AC01DC010D900020E9F71197D1
:10011000A81BB90B20E030E015E060ED77E094E03B
:100120000CC0FA01E20FF31F808185BB12BBFB01FB
:100130003197F1F792BB2F5F3F4F2A173B0788F3A8
:100140001F9108950F931F938FEF84BB81BB0E9473
:10015000620080E886B900917E0010917F0080E007
:1001600090E00E944C0008171907A9F380E090E086
:100170000E944C0090937F0080937E006AE670E0BE
:100180004AE050E00E94CF000E94620080E690E0CA
:100190000E9481008AE690E00E948100DCCFFB0192
:1001A0009F01E8944230C4F04532B4F44A3029F457
:1001B00097FB1EF4909581959F4F642F77270E949F
:1001C0000001805D8A330CF0895D8193CB0100973B
:1001D000A1F716F45DE251931082C9010C94F0006E
:1001E000DC01FC01672F71917723E1F7329704C09E
:1001F0007C916D9370836291AE17BF07C8F3089529
:10020000AA1BBB1B51E107C0AA1FBB1FA617B7073C
:1002100010F0A61BB70B881F991F5A95A9F7809558
:0C0220009095BC01CD010895F894FFCF2B
:0A022C0054656D7020697320000016
:00000001FF
